{
  "contractName": "Lottery",
  "abi": [
    {
      "inputs": [],
      "payable": true,
      "stateMutability": "payable",
      "type": "constructor"
    },
    {
      "constant": true,
      "inputs": [],
      "name": "manager",
      "outputs": [
        {
          "internalType": "address",
          "name": "",
          "type": "address"
        }
      ],
      "payable": false,
      "stateMutability": "view",
      "type": "function"
    },
    {
      "constant": true,
      "inputs": [
        {
          "internalType": "uint256",
          "name": "",
          "type": "uint256"
        }
      ],
      "name": "players",
      "outputs": [
        {
          "internalType": "address payable",
          "name": "",
          "type": "address"
        }
      ],
      "payable": false,
      "stateMutability": "view",
      "type": "function"
    },
    {
      "constant": false,
      "inputs": [],
      "name": "Enter",
      "outputs": [],
      "payable": true,
      "stateMutability": "payable",
      "type": "function"
    },
    {
      "constant": false,
      "inputs": [],
      "name": "PickWinner",
      "outputs": [],
      "payable": false,
      "stateMutability": "nonpayable",
      "type": "function"
    },
    {
      "constant": true,
      "inputs": [],
      "name": "getPlayers",
      "outputs": [
        {
          "internalType": "address payable[]",
          "name": "",
          "type": "address[]"
        }
      ],
      "payable": false,
      "stateMutability": "view",
      "type": "function"
    }
  ],
  "bytecode": "0x6080604052336000806101000a81548173ffffffffffffffffffffffffffffffffffffffff021916908373ffffffffffffffffffffffffffffffffffffffff1602179055506106cc806100536000396000f3fe60806040526004361061004a5760003560e01c80631097e5791461004f578063481c6a75146100595780638b5b9ccc146100b0578063b7d2c6541461011c578063f71d96cb14610133575b600080fd5b6100576101ae565b005b34801561006557600080fd5b5061006e610292565b604051808273ffffffffffffffffffffffffffffffffffffffff1673ffffffffffffffffffffffffffffffffffffffff16815260200191505060405180910390f35b3480156100bc57600080fd5b506100c56102b7565b6040518080602001828103825283818151815260200191508051906020019060200280838360005b838110156101085780820151818401526020810190506100ed565b505050509050019250505060405180910390f35b34801561012857600080fd5b50610131610345565b005b34801561013f57600080fd5b5061016c6004803603602081101561015657600080fd5b81019080803590602001909291905050506104ec565b604051808273ffffffffffffffffffffffffffffffffffffffff1673ffffffffffffffffffffffffffffffffffffffff16815260200191505060405180910390f35b66470de4df820000341461022a576040517f08c379a000000000000000000000000000000000000000000000000000000000815260040180806020018281038252600f8152602001807f4d7573742062652032206574686572000000000000000000000000000000000081525060200191505060405180910390fd5b60013390806001815401808255809150509060018203906000526020600020016000909192909190916101000a81548173ffffffffffffffffffffffffffffffffffffffff021916908373ffffffffffffffffffffffffffffffffffffffff16021790555050565b6000809054906101000a900473ffffffffffffffffffffffffffffffffffffffff1681565b6060600180548060200260200160405190810160405280929190818152602001828054801561033b57602002820191906000526020600020905b8160009054906101000a900473ffffffffffffffffffffffffffffffffffffffff1673ffffffffffffffffffffffffffffffffffffffff16815260200190600101908083116102f1575b5050505050905090565b6000809054906101000a900473ffffffffffffffffffffffffffffffffffffffff1673ffffffffffffffffffffffffffffffffffffffff163373ffffffffffffffffffffffffffffffffffffffff1614610407576040517f08c379a000000000000000000000000000000000000000000000000000000000815260040180806020018281038252600f8152602001807f4e6f7420746865204d616e61676572000000000000000000000000000000000081525060200191505060405180910390fd5b600180549050610415610528565b8161041c57fe5b0660028190555060016002548154811061043257fe5b9060005260206000200160009054906101000a900473ffffffffffffffffffffffffffffffffffffffff1673ffffffffffffffffffffffffffffffffffffffff166108fc479081150290604051600060405180830381858888f193505050501580156104a2573d6000803e3d6000fd5b5060006040519080825280602002602001820160405280156104d35781602001602082028038833980820191505090505b50600190805190602001906104e99291906105ca565b50565b600181815481106104f957fe5b906000526020600020016000915054906101000a900473ffffffffffffffffffffffffffffffffffffffff1681565b6000444260016040516020018084815260200183815260200182805480156105a557602002820191906000526020600020905b8160009054906101000a900473ffffffffffffffffffffffffffffffffffffffff1673ffffffffffffffffffffffffffffffffffffffff168152602001906001019080831161055b575b505093505050506040516020818303038152906040528051906020012060001c905090565b828054828255906000526020600020908101928215610643579160200282015b828111156106425782518260006101000a81548173ffffffffffffffffffffffffffffffffffffffff021916908373ffffffffffffffffffffffffffffffffffffffff160217905550916020019190600101906105ea565b5b5090506106509190610654565b5090565b61069491905b8082111561069057600081816101000a81549073ffffffffffffffffffffffffffffffffffffffff02191690555060010161065a565b5090565b9056fea265627a7a723158207dec0d6163dfad4b211229663a5d8e3a656925d722fb1bd47cb67d86d060156564736f6c63430005100032",
  "source": "// SPDX-License-Identifier: MIT\r\npragma solidity >=0.5.0 <0.9.0;\r\n\r\ncontract Lottery{\r\n    address public manager;\r\n    address payable[] public players;\r\n    uint index;\r\n\r\n    constructor() public payable {\r\n        manager=msg.sender;\r\n    }\r\n\r\n    function Enter() public payable {\r\n        require(msg.value == 0.02 ether, \"Must be 2 ether\");\r\n\r\n        players.push(msg.sender);\r\n    }\r\n//random number=\r\n    function random() private view  returns (uint){\r\n        return uint(keccak256(abi.encodePacked(block.difficulty, block.timestamp, players)));\r\n\r\n    }\r\n    function PickWinner() public restricted {\r\n        index= random() % players.length;// this let it return number within the bound\r\n        players[index].transfer(address(this).balance);\r\n        players= new address payable[](0);\r\n\r\n    }\r\n    modifier restricted(){\r\n        require(msg.sender == manager, \"Not the Manager\");\r\n        _;\r\n    }\r\n    function getPlayers() public view returns( address payable [] memory){\r\n        return players;\r\n    }\r\n}",
  "sourcePath": "C:\\Users\\DELL\\Pictures\\lottery_app\\contracts\\Lottery.sol",
  "compiler": {
    "name": "solc",
    "version": "0.5.16+commit.9c3226ce.Emscripten.clang"
  },
  "schemaVersion": "3.4.16",
  "updatedAt": "2024-02-26T18:28:37.619Z",
  "networkType": "ethereum",
  "devdoc": {
    "methods": {}
  },
  "userdoc": {
    "methods": {}
  }
}